{
  "contractName": "VehicleHistory",
  "abi": [
    {
      "inputs": [],
      "stateMutability": "nonpayable",
      "type": "constructor"
    },
    {
      "inputs": [],
      "name": "AccessControlBadConfirmation",
      "type": "error"
    },
    {
      "inputs": [
        {
          "internalType": "address",
          "name": "account",
          "type": "address"
        },
        {
          "internalType": "bytes32",
          "name": "neededRole",
          "type": "bytes32"
        }
      ],
      "name": "AccessControlUnauthorizedAccount",
      "type": "error"
    },
    {
      "anonymous": false,
      "inputs": [
        {
          "indexed": true,
          "internalType": "string",
          "name": "vin",
          "type": "string"
        },
        {
          "indexed": true,
          "internalType": "enum VehicleHistory.RecordType",
          "name": "rtype",
          "type": "uint8"
        },
        {
          "indexed": true,
          "internalType": "address",
          "name": "by",
          "type": "address"
        },
        {
          "indexed": false,
          "internalType": "string",
          "name": "payload",
          "type": "string"
        }
      ],
      "name": "HistoryRecordAdded",
      "type": "event"
    },
    {
      "anonymous": false,
      "inputs": [
        {
          "indexed": true,
          "internalType": "string",
          "name": "vin",
          "type": "string"
        },
        {
          "indexed": true,
          "internalType": "address",
          "name": "from",
          "type": "address"
        },
        {
          "indexed": true,
          "internalType": "address",
          "name": "to",
          "type": "address"
        }
      ],
      "name": "OwnershipTransferred",
      "type": "event"
    },
    {
      "anonymous": false,
      "inputs": [
        {
          "indexed": true,
          "internalType": "bytes32",
          "name": "role",
          "type": "bytes32"
        },
        {
          "indexed": true,
          "internalType": "bytes32",
          "name": "previousAdminRole",
          "type": "bytes32"
        },
        {
          "indexed": true,
          "internalType": "bytes32",
          "name": "newAdminRole",
          "type": "bytes32"
        }
      ],
      "name": "RoleAdminChanged",
      "type": "event"
    },
    {
      "anonymous": false,
      "inputs": [
        {
          "indexed": true,
          "internalType": "bytes32",
          "name": "role",
          "type": "bytes32"
        },
        {
          "indexed": true,
          "internalType": "address",
          "name": "account",
          "type": "address"
        },
        {
          "indexed": true,
          "internalType": "address",
          "name": "sender",
          "type": "address"
        }
      ],
      "name": "RoleGranted",
      "type": "event"
    },
    {
      "anonymous": false,
      "inputs": [
        {
          "indexed": true,
          "internalType": "bytes32",
          "name": "role",
          "type": "bytes32"
        },
        {
          "indexed": true,
          "internalType": "address",
          "name": "account",
          "type": "address"
        },
        {
          "indexed": true,
          "internalType": "address",
          "name": "sender",
          "type": "address"
        }
      ],
      "name": "RoleRevoked",
      "type": "event"
    },
    {
      "anonymous": false,
      "inputs": [
        {
          "indexed": true,
          "internalType": "string",
          "name": "vin",
          "type": "string"
        },
        {
          "indexed": true,
          "internalType": "address",
          "name": "owner",
          "type": "address"
        }
      ],
      "name": "VehicleRegistered",
      "type": "event"
    },
    {
      "inputs": [],
      "name": "DEFAULT_ADMIN_ROLE",
      "outputs": [
        {
          "internalType": "bytes32",
          "name": "",
          "type": "bytes32"
        }
      ],
      "stateMutability": "view",
      "type": "function",
      "constant": true
    },
    {
      "inputs": [],
      "name": "DMV_ROLE",
      "outputs": [
        {
          "internalType": "bytes32",
          "name": "",
          "type": "bytes32"
        }
      ],
      "stateMutability": "view",
      "type": "function",
      "constant": true
    },
    {
      "inputs": [],
      "name": "INSURER_ROLE",
      "outputs": [
        {
          "internalType": "bytes32",
          "name": "",
          "type": "bytes32"
        }
      ],
      "stateMutability": "view",
      "type": "function",
      "constant": true
    },
    {
      "inputs": [],
      "name": "SERVICE_ROLE",
      "outputs": [
        {
          "internalType": "bytes32",
          "name": "",
          "type": "bytes32"
        }
      ],
      "stateMutability": "view",
      "type": "function",
      "constant": true
    },
    {
      "inputs": [
        {
          "internalType": "bytes32",
          "name": "role",
          "type": "bytes32"
        }
      ],
      "name": "getRoleAdmin",
      "outputs": [
        {
          "internalType": "bytes32",
          "name": "",
          "type": "bytes32"
        }
      ],
      "stateMutability": "view",
      "type": "function",
      "constant": true
    },
    {
      "inputs": [
        {
          "internalType": "bytes32",
          "name": "role",
          "type": "bytes32"
        },
        {
          "internalType": "address",
          "name": "account",
          "type": "address"
        }
      ],
      "name": "grantRole",
      "outputs": [],
      "stateMutability": "nonpayable",
      "type": "function"
    },
    {
      "inputs": [
        {
          "internalType": "bytes32",
          "name": "role",
          "type": "bytes32"
        },
        {
          "internalType": "address",
          "name": "account",
          "type": "address"
        }
      ],
      "name": "hasRole",
      "outputs": [
        {
          "internalType": "bool",
          "name": "",
          "type": "bool"
        }
      ],
      "stateMutability": "view",
      "type": "function",
      "constant": true
    },
    {
      "inputs": [
        {
          "internalType": "bytes32",
          "name": "role",
          "type": "bytes32"
        },
        {
          "internalType": "address",
          "name": "callerConfirmation",
          "type": "address"
        }
      ],
      "name": "renounceRole",
      "outputs": [],
      "stateMutability": "nonpayable",
      "type": "function"
    },
    {
      "inputs": [
        {
          "internalType": "bytes32",
          "name": "role",
          "type": "bytes32"
        },
        {
          "internalType": "address",
          "name": "account",
          "type": "address"
        }
      ],
      "name": "revokeRole",
      "outputs": [],
      "stateMutability": "nonpayable",
      "type": "function"
    },
    {
      "inputs": [
        {
          "internalType": "bytes4",
          "name": "interfaceId",
          "type": "bytes4"
        }
      ],
      "name": "supportsInterface",
      "outputs": [
        {
          "internalType": "bool",
          "name": "",
          "type": "bool"
        }
      ],
      "stateMutability": "view",
      "type": "function",
      "constant": true
    },
    {
      "inputs": [
        {
          "internalType": "string",
          "name": "vin",
          "type": "string"
        }
      ],
      "name": "getCurrentOwner",
      "outputs": [
        {
          "internalType": "address",
          "name": "",
          "type": "address"
        }
      ],
      "stateMutability": "view",
      "type": "function",
      "constant": true
    },
    {
      "inputs": [
        {
          "internalType": "string",
          "name": "vin",
          "type": "string"
        }
      ],
      "name": "historyLength",
      "outputs": [
        {
          "internalType": "uint256",
          "name": "",
          "type": "uint256"
        }
      ],
      "stateMutability": "view",
      "type": "function",
      "constant": true
    },
    {
      "inputs": [
        {
          "internalType": "string",
          "name": "vin",
          "type": "string"
        },
        {
          "internalType": "uint256",
          "name": "index",
          "type": "uint256"
        }
      ],
      "name": "getRecord",
      "outputs": [
        {
          "internalType": "enum VehicleHistory.RecordType",
          "name": "rtype",
          "type": "uint8"
        },
        {
          "internalType": "uint256",
          "name": "ts",
          "type": "uint256"
        },
        {
          "internalType": "address",
          "name": "by",
          "type": "address"
        },
        {
          "internalType": "string",
          "name": "payload",
          "type": "string"
        }
      ],
      "stateMutability": "view",
      "type": "function",
      "constant": true
    },
    {
      "inputs": [
        {
          "internalType": "string",
          "name": "vin",
          "type": "string"
        },
        {
          "internalType": "address",
          "name": "firstOwner",
          "type": "address"
        },
        {
          "internalType": "string",
          "name": "metaHash",
          "type": "string"
        }
      ],
      "name": "registerVehicle",
      "outputs": [],
      "stateMutability": "nonpayable",
      "type": "function"
    },
    {
      "inputs": [
        {
          "internalType": "string",
          "name": "vin",
          "type": "string"
        },
        {
          "internalType": "address",
          "name": "newOwner",
          "type": "address"
        },
        {
          "internalType": "string",
          "name": "transferDocHash",
          "type": "string"
        }
      ],
      "name": "transferOwnership",
      "outputs": [],
      "stateMutability": "nonpayable",
      "type": "function"
    },
    {
      "inputs": [
        {
          "internalType": "string",
          "name": "vin",
          "type": "string"
        },
        {
          "internalType": "string",
          "name": "cid",
          "type": "string"
        }
      ],
      "name": "addServiceRecord",
      "outputs": [],
      "stateMutability": "nonpayable",
      "type": "function"
    },
    {
      "inputs": [
        {
          "internalType": "string",
          "name": "vin",
          "type": "string"
        },
        {
          "internalType": "string",
          "name": "cid",
          "type": "string"
        }
      ],
      "name": "addAccidentRecord",
      "outputs": [],
      "stateMutability": "nonpayable",
      "type": "function"
    },
    {
      "inputs": [
        {
          "internalType": "string",
          "name": "vin",
          "type": "string"
        },
        {
          "internalType": "string",
          "name": "cid",
          "type": "string"
        }
      ],
      "name": "addOdometerRecord",
      "outputs": [],
      "stateMutability": "nonpayable",
      "type": "function"
    }
  ],
  "bytecode": "0x608060405234801561000f575f80fd5b5061001a5f3361004b565b506100457fccfe9874354d5971d4613c62074763fd0d041ce07268500c191be0610dbbd8603361004b565b506100f4565b5f828152602081815260408083206001600160a01b038516845290915281205460ff166100eb575f838152602081815260408083206001600160a01b03861684529091529020805460ff191660011790556100a33390565b6001600160a01b0316826001600160a01b0316847f2f8788117e7eff1d82e926ec794901d17c78024a50270940304540a733656f0d60405160405180910390a45060016100ee565b505f5b92915050565b61127a806101015f395ff3fe608060405234801561000f575f80fd5b5060043610610111575f3560e01c806391d148541161009e578063a217fddf1161006e578063a217fddf1461027c578063b6ddce6614610283578063bc60f6a114610296578063d547741f146102b9578063d55a772d146102cc575f80fd5b806391d148541461020857806398144d661461021b578063991301951461022e578063a20e7d4714610255575f80fd5b806335764552116100e457806335764552146101a957806336568abe146101bc57806337b3d3c7146101cf57806372bd5f2c146101e2578063898165ab146101f5575f80fd5b806301ffc9a714610115578063056c99891461013d578063248a9ca3146101725780632f2ff15d14610194575b5f80fd5b610128610123366004610da6565b6102f7565b60405190151581526020015b60405180910390f35b6101647feb0a07781e3ee843c0d85f7381c2e1a1e1a6ea86bcdcd944ef649d46e7dcd97281565b604051908152602001610134565b610164610180366004610dd4565b5f9081526020819052604090206001015490565b6101a76101a2366004610e06565b61032d565b005b6101a76101b7366004610e75565b610357565b6101a76101ca366004610e06565b610516565b6101a76101dd366004610ef3565b61054e565b6101a76101f0366004610e75565b6105da565b6101a7610203366004610ef3565b61078e565b610128610216366004610e06565b610857565b610164610229366004610f5a565b61087f565b6101647fccfe9874354d5971d4613c62074763fd0d041ce07268500c191be0610dbbd86081565b6101647fd8a7a79547af723ee3e12b59a480111268d8969c634e1a34a144d2c8b91d635b81565b6101645f81565b6101a7610291366004610ef3565b6108aa565b6102a96102a4366004610f99565b61092d565b6040516101349493929190610ff5565b6101a76102c7366004610e06565b610a37565b6102df6102da366004610f5a565b610a5b565b6040516001600160a01b039091168152602001610134565b5f6001600160e01b03198216637965db0b60e01b148061032757506301ffc9a760e01b6001600160e01b03198316145b92915050565b5f8281526020819052604090206001015461034781610ad8565b6103518383610ae5565b50505050565b5f6001868660405161036a92919061107a565b908152604051908190036020019020805490915060ff600160a01b909104166103ae5760405162461bcd60e51b81526004016103a590611089565b60405180910390fd5b80546001600160a01b031633146103fc5760405162461bcd60e51b815260206004820152601260248201527127b7363c9031bab93932b73a1037bbb732b960711b60448201526064016103a5565b6001600160a01b0384166104435760405162461bcd60e51b815260206004820152600e60248201526d2d32b937903732bb9037bbb732b960911b60448201526064016103a5565b80546001600160a01b03908116908516036104905760405162461bcd60e51b815260206004820152600d60248201526c20b63932b0b23c9037bbb732b960991b60448201526064016103a5565b80546001600160a01b038581166001600160a01b03198316178355166104ba878760018787610b74565b846001600160a01b0316816001600160a01b031688886040516104de92919061107a565b604051908190038120907f6840904f5b31827f74e1497360da245f56e530c8c3de3163a2d31f11493273c6905f90a450505050505050565b6001600160a01b038116331461053f5760405163334bd91960e11b815260040160405180910390fd5b6105498282610d00565b505050565b7fd8a7a79547af723ee3e12b59a480111268d8969c634e1a34a144d2c8b91d635b61057881610ad8565b84846001828260405161058c92919061107a565b9081526040519081900360200190205460ff600160a01b909104166105c35760405162461bcd60e51b81526004016103a590611089565b6105d1878760028888610b74565b50505050505050565b7fccfe9874354d5971d4613c62074763fd0d041ce07268500c191be0610dbbd86061060481610ad8565b6001868660405161061692919061107a565b9081526040519081900360200190205460ff600160a01b90910416156106775760405162461bcd60e51b815260206004820152601660248201527515925388185b1c9958591e481c9959da5cdd195c995960521b60448201526064016103a5565b6001600160a01b0384166106ba5760405162461bcd60e51b815260206004820152600a6024820152692d32b9379037bbb732b960b11b60448201526064016103a5565b6040518060400160405280856001600160a01b0316815260200160011515815250600187876040516106ed92919061107a565b908152604051602091819003820190208251815493909201516001600160a01b039092166001600160a81b031990931692909217600160a01b9115159190910217905561073d86865f8686610b74565b836001600160a01b0316868660405161075792919061107a565b604051908190038120907f0cfba914b5106da2fbba725502188ab817f680c8fe51c318c8bf6896a59f7fbd905f90a3505050505050565b8383600182826040516107a292919061107a565b9081526040519081900360200190205460ff600160a01b909104166107d95760405162461bcd60e51b81526004016103a590611089565b600186866040516107eb92919061107a565b90815260405190819003602001902054336001600160a01b03909116146108415760405162461bcd60e51b815260206004820152600a60248201526927b7363c9037bbb732b960b11b60448201526064016103a5565b61084f868660048787610b74565b505050505050565b5f918252602082815260408084206001600160a01b0393909316845291905290205460ff1690565b5f6002838360405161089292919061107a565b90815260405190819003602001902054905092915050565b7feb0a07781e3ee843c0d85f7381c2e1a1e1a6ea86bcdcd944ef649d46e7dcd9726108d481610ad8565b8484600182826040516108e892919061107a565b9081526040519081900360200190205460ff600160a01b9091041661091f5760405162461bcd60e51b81526004016103a590611089565b6105d1878760038888610b74565b5f805f60605f6002888860405161094592919061107a565b90815260200160405180910390208681548110610964576109646110b5565b5f918252602090912060049091020180546001820154600283015460038401805494955060ff9093169391926001600160a01b039091169181906109a7906110c9565b80601f01602080910402602001604051908101604052809291908181526020018280546109d3906110c9565b8015610a1e5780601f106109f557610100808354040283529160200191610a1e565b820191905f5260205f20905b815481529060010190602001808311610a0157829003601f168201915b5050505050905094509450945094505093509350935093565b5f82815260208190526040902060010154610a5181610ad8565b6103518383610d00565b5f60018383604051610a6e92919061107a565b9081526040519081900360200190205460ff600160a01b90910416610aa55760405162461bcd60e51b81526004016103a590611089565b60018383604051610ab792919061107a565b908152604051908190036020019020546001600160a01b0316905092915050565b610ae28133610d69565b50565b5f610af08383610857565b610b6d575f838152602081815260408083206001600160a01b03861684529091529020805460ff19166001179055610b253390565b6001600160a01b0316826001600160a01b0316847f2f8788117e7eff1d82e926ec794901d17c78024a50270940304540a733656f0d60405160405180910390a4506001610327565b505f610327565b60028585604051610b8692919061107a565b90815260200160405180910390206040518060800160405280856004811115610bb157610bb1610fe1565b8152602001428152602001336001600160a01b0316815260200184848080601f0160208091040260200160405190810160405280939291908181526020018383808284375f920182905250939094525050835460018181018655948252602090912083516004928302909101805494959094919350849260ff19909216918490811115610c4057610c40610fe1565b02179055506020820151600182015560408201516002820180546001600160a01b0319166001600160a01b0390921691909117905560608201516003820190610c89908261115a565b505050336001600160a01b0316836004811115610ca857610ca8610fe1565b8686604051610cb892919061107a565b60405180910390207f8139efd5c16629ecbde8592ded41814bec3dab9e269e12e93a89fb454412ae198585604051610cf1929190611216565b60405180910390a45050505050565b5f610d0b8383610857565b15610b6d575f838152602081815260408083206001600160a01b0386168085529252808320805460ff1916905551339286917ff6391f5c32d9c69d2a47ea670b442974b53935d1edc7fd64eb21e047a839171b9190a4506001610327565b610d738282610857565b610da25760405163e2517d3f60e01b81526001600160a01b0382166004820152602481018390526044016103a5565b5050565b5f60208284031215610db6575f80fd5b81356001600160e01b031981168114610dcd575f80fd5b9392505050565b5f60208284031215610de4575f80fd5b5035919050565b80356001600160a01b0381168114610e01575f80fd5b919050565b5f8060408385031215610e17575f80fd5b82359150610e2760208401610deb565b90509250929050565b5f8083601f840112610e40575f80fd5b50813567ffffffffffffffff811115610e57575f80fd5b602083019150836020828501011115610e6e575f80fd5b9250929050565b5f805f805f60608688031215610e89575f80fd5b853567ffffffffffffffff80821115610ea0575f80fd5b610eac89838a01610e30565b9097509550859150610ec060208901610deb565b94506040880135915080821115610ed5575f80fd5b50610ee288828901610e30565b969995985093965092949392505050565b5f805f8060408587031215610f06575f80fd5b843567ffffffffffffffff80821115610f1d575f80fd5b610f2988838901610e30565b90965094506020870135915080821115610f41575f80fd5b50610f4e87828801610e30565b95989497509550505050565b5f8060208385031215610f6b575f80fd5b823567ffffffffffffffff811115610f81575f80fd5b610f8d85828601610e30565b90969095509350505050565b5f805f60408486031215610fab575f80fd5b833567ffffffffffffffff811115610fc1575f80fd5b610fcd86828701610e30565b909790965060209590950135949350505050565b634e487b7160e01b5f52602160045260245ffd5b5f6005861061101257634e487b7160e01b5f52602160045260245ffd5b8582526020858184015260018060a01b03851660408401526080606084015283518060808501525f5b818110156110575785810183015185820160a00152820161103b565b505f60a0828601015260a0601f19601f8301168501019250505095945050505050565b818382375f9101908152919050565b602080825260129082015271159253881b9bdd081c9959da5cdd195c995960721b604082015260600190565b634e487b7160e01b5f52603260045260245ffd5b600181811c908216806110dd57607f821691505b6020821081036110fb57634e487b7160e01b5f52602260045260245ffd5b50919050565b634e487b7160e01b5f52604160045260245ffd5b601f821115610549575f81815260208120601f850160051c8101602086101561113b5750805b601f850160051c820191505b8181101561084f57828155600101611147565b815167ffffffffffffffff81111561117457611174611101565b6111888161118284546110c9565b84611115565b602080601f8311600181146111bb575f84156111a45750858301515b5f19600386901b1c1916600185901b17855561084f565b5f85815260208120601f198616915b828110156111e9578886015182559484019460019091019084016111ca565b508582101561120657878501515f19600388901b60f8161c191681555b5050505050600190811b01905550565b60208152816020820152818360408301375f818301604090810191909152601f909201601f1916010191905056fea2646970667358221220fcadb2f9f00d6592a874e485f78d9493cfaead3ad363ea3821d2c75ca82f839d64736f6c63430008150033",
  "immutableReferences": {},
  "source": "// SPDX-License-Identifier: MIT\r\npragma solidity ^0.8.21;\r\n\r\n/*    OpenZeppelin helpers    */\r\nimport \"@openzeppelin/contracts/access/AccessControl.sol\";\r\nimport \"@openzeppelin/contracts/utils/structs/EnumerableSet.sol\";\r\n\r\n/**\r\n * VehicleHistory v2  block-chain log of registration, transfers,\r\n * service events, accidents and odometer updates.\r\n *\r\n * Roles\r\n *  \r\n *  DEFAULT_ADMIN_ROLE   contract owner: can grant/revoke any role.\r\n *  DMV_ROLE             may register new vehicles.\r\n *  SERVICE_ROLE         may add Service records.\r\n *  INSURER_ROLE         may add Accident records.\r\n *\r\n *  Current owner        may transfer ownership & add Odometer records.\r\n *\r\n * Data model\r\n *  \r\n *  mapping VIN   Vehicle { currentOwner }\r\n *  mapping VIN   Record[]  (append-only)\r\n *\r\n *  Record {\r\n *      RecordType     rtype\r\n *      uint256        timestamp\r\n *      address        addedBy\r\n *      string         payload   (IPFS hash or JSON string)\r\n *  }\r\n */\r\n\r\ncontract VehicleHistory is AccessControl {\r\n    using EnumerableSet for EnumerableSet.AddressSet;\r\n\r\n    /* ROLES */\r\n    bytes32 public constant DMV_ROLE     = keccak256(\"DMV_ROLE\");\r\n    bytes32 public constant SERVICE_ROLE = keccak256(\"SERVICE_ROLE\");\r\n    bytes32 public constant INSURER_ROLE = keccak256(\"INSURER_ROLE\");\r\n\r\n    /* DATA STRUCTURES */\r\n    enum RecordType { Registration, OwnershipTransfer, Service, Accident, Odometer }\r\n\r\n    struct Record {\r\n        RecordType rtype;\r\n        uint256    timestamp;\r\n        address    addedBy;\r\n        string     payload;     // IPFS CID / JSON / free text\r\n    }\r\n\r\n    struct Vehicle {\r\n        address currentOwner;\r\n        bool    exists;\r\n    }\r\n\r\n    /* STORAGE */\r\n    mapping(string => Vehicle)             private vehicles;   // VIN -> Vehicle\r\n    mapping(string => Record[])            private histories;  // VIN -> record array\r\n    EnumerableSet.AddressSet               private authorised; // convenience set\r\n\r\n    /* EVENTS */\r\n    event VehicleRegistered(string indexed vin, address indexed owner);\r\n    event OwnershipTransferred(string indexed vin, address indexed from, address indexed to);\r\n    event HistoryRecordAdded(string indexed vin, RecordType indexed rtype, address indexed by, string payload);\r\n\r\n    /* CONSTRUCTOR */\r\n    constructor() {\r\n        _grantRole(DEFAULT_ADMIN_ROLE, msg.sender);\r\n        // by default the deployer is also the DMV so tests just work\r\n        _grantRole(DMV_ROLE, msg.sender);\r\n    }\r\n\r\n    /*  VIEW HELPERS  */\r\n    function getCurrentOwner(string calldata vin) external view returns (address) {\r\n        require(vehicles[vin].exists, \"VIN not registered\");\r\n        return vehicles[vin].currentOwner;\r\n    }\r\n\r\n    function historyLength(string calldata vin) external view returns (uint256) {\r\n        return histories[vin].length;\r\n    }\r\n\r\n    function getRecord(string calldata vin, uint256 index)\r\n        external view\r\n        returns (RecordType rtype, uint256 ts, address by, string memory payload)\r\n    {\r\n        Record storage r = histories[vin][index];\r\n        return (r.rtype, r.timestamp, r.addedBy, r.payload);\r\n    }\r\n\r\n    /* VEHICLE LIFECYCLE  */\r\n\r\n    /// DMV registers brand-new vehicle with its first owner\r\n    function registerVehicle(string calldata vin, address firstOwner, string calldata metaHash)\r\n        external onlyRole(DMV_ROLE)\r\n    {\r\n        require(!vehicles[vin].exists, \"VIN already registered\");\r\n        require(firstOwner != address(0), \"Zero owner\");\r\n        vehicles[vin] = Vehicle(firstOwner, true);\r\n\r\n        _pushRecord(vin, RecordType.Registration, metaHash);\r\n\r\n        emit VehicleRegistered(vin, firstOwner);\r\n    }\r\n\r\n    /// Current owner transfers vehicle to a new owner\r\n    function transferOwnership(string calldata vin, address newOwner, string calldata transferDocHash) external {\r\n        Vehicle storage v = vehicles[vin];\r\n        require(v.exists,                 \"VIN not registered\");\r\n        require(msg.sender == v.currentOwner, \"Only current owner\");\r\n        require(newOwner != address(0),   \"Zero new owner\");\r\n        require(newOwner != v.currentOwner,   \"Already owner\");\r\n\r\n        address oldOwner = v.currentOwner;\r\n        v.currentOwner   = newOwner;\r\n\r\n        _pushRecord(vin, RecordType.OwnershipTransfer, transferDocHash);\r\n        emit OwnershipTransferred(vin, oldOwner, newOwner);\r\n    }\r\n\r\n    /* HISTORY WRITERS */\r\n\r\n    /// Service centre adds maintenance or inspection details\r\n    function addServiceRecord(string calldata vin, string calldata cid)\r\n        external onlyRole(SERVICE_ROLE) vehicleExists(vin)\r\n    {\r\n        _pushRecord(vin, RecordType.Service, cid);\r\n    }\r\n\r\n    /// Insurer or authorised adjuster logs an accident\r\n    function addAccidentRecord(string calldata vin, string calldata cid)\r\n        external onlyRole(INSURER_ROLE) vehicleExists(vin)\r\n    {\r\n        _pushRecord(vin, RecordType.Accident, cid);\r\n    }\r\n\r\n    /// Current owner logs mileage/odometer snapshot\r\n    function addOdometerRecord(string calldata vin, string calldata cid)\r\n        external vehicleExists(vin)\r\n    {\r\n        require(msg.sender == vehicles[vin].currentOwner, \"Only owner\");\r\n        _pushRecord(vin, RecordType.Odometer, cid);\r\n    }\r\n\r\n    /* INTERNAL UTILITIES */\r\n\r\n    modifier vehicleExists(string calldata vin) {\r\n        require(vehicles[vin].exists, \"VIN not registered\");\r\n        _;\r\n    }\r\n\r\n    function _pushRecord(string calldata vin, RecordType kind, string calldata payload) internal {\r\n        histories[vin].push(\r\n            Record({ rtype: kind, timestamp: block.timestamp, addedBy: msg.sender, payload: payload })\r\n        );\r\n        emit HistoryRecordAdded(vin, kind, msg.sender, payload);\r\n    }\r\n}\r\n",
  "sourcePath": "C:\\Users\\Yusuf\\Desktop\\COMP\\2nd Year\\Second Term\\Comp421\\vehicle_history_blockchain\\contracts\\VehicleHistory.sol",
  "compiler": {
    "name": "solc",
    "version": "0.8.21+commit.d9974bed.Emscripten.clang"
  },
  "schemaVersion": "3.4.16",
  "updatedAt": "2025-05-17T22:42:33.373Z",
  "networkType": "ethereum",
  "devdoc": {
    "errors": {
      "AccessControlBadConfirmation()": [
        {
          "details": "The caller of a function is not the expected one. NOTE: Don't confuse with {AccessControlUnauthorizedAccount}."
        }
      ],
      "AccessControlUnauthorizedAccount(address,bytes32)": [
        {
          "details": "The `account` is missing a role."
        }
      ]
    },
    "events": {
      "RoleAdminChanged(bytes32,bytes32,bytes32)": {
        "details": "Emitted when `newAdminRole` is set as ``role``'s admin role, replacing `previousAdminRole` `DEFAULT_ADMIN_ROLE` is the starting admin for all roles, despite {RoleAdminChanged} not being emitted to signal this."
      },
      "RoleGranted(bytes32,address,address)": {
        "details": "Emitted when `account` is granted `role`. `sender` is the account that originated the contract call. This account bears the admin role (for the granted role). Expected in cases where the role was granted using the internal {AccessControl-_grantRole}."
      },
      "RoleRevoked(bytes32,address,address)": {
        "details": "Emitted when `account` is revoked `role`. `sender` is the account that originated the contract call:   - if using `revokeRole`, it is the admin role bearer   - if using `renounceRole`, it is the role bearer (i.e. `account`)"
      }
    },
    "kind": "dev",
    "methods": {
      "getRoleAdmin(bytes32)": {
        "details": "Returns the admin role that controls `role`. See {grantRole} and {revokeRole}. To change a role's admin, use {_setRoleAdmin}."
      },
      "grantRole(bytes32,address)": {
        "details": "Grants `role` to `account`. If `account` had not been already granted `role`, emits a {RoleGranted} event. Requirements: - the caller must have ``role``'s admin role. May emit a {RoleGranted} event."
      },
      "hasRole(bytes32,address)": {
        "details": "Returns `true` if `account` has been granted `role`."
      },
      "renounceRole(bytes32,address)": {
        "details": "Revokes `role` from the calling account. Roles are often managed via {grantRole} and {revokeRole}: this function's purpose is to provide a mechanism for accounts to lose their privileges if they are compromised (such as when a trusted device is misplaced). If the calling account had been revoked `role`, emits a {RoleRevoked} event. Requirements: - the caller must be `callerConfirmation`. May emit a {RoleRevoked} event."
      },
      "revokeRole(bytes32,address)": {
        "details": "Revokes `role` from `account`. If `account` had been granted `role`, emits a {RoleRevoked} event. Requirements: - the caller must have ``role``'s admin role. May emit a {RoleRevoked} event."
      },
      "supportsInterface(bytes4)": {
        "details": "See {IERC165-supportsInterface}."
      }
    },
    "version": 1
  },
  "userdoc": {
    "kind": "user",
    "methods": {
      "addAccidentRecord(string,string)": {
        "notice": "Insurer or authorised adjuster logs an accident"
      },
      "addOdometerRecord(string,string)": {
        "notice": "Current owner logs mileage/odometer snapshot"
      },
      "addServiceRecord(string,string)": {
        "notice": "Service centre adds maintenance or inspection details"
      },
      "registerVehicle(string,address,string)": {
        "notice": "DMV registers brand-new vehicle with its first owner"
      },
      "transferOwnership(string,address,string)": {
        "notice": "Current owner transfers vehicle to a new owner"
      }
    },
    "notice": "VehicleHistory v2  block-chain log of registration, transfers, service events, accidents and odometer updates. Roles    DEFAULT_ADMIN_ROLE   contract owner: can grant/revoke any role.  DMV_ROLE             may register new vehicles.  SERVICE_ROLE         may add Service records.  INSURER_ROLE         may add Accident records.  Current owner        may transfer ownership & add Odometer records. Data model    mapping VIN   Vehicle { currentOwner }  mapping VIN   Record[]  (append-only)  Record {      RecordType     rtype      uint256        timestamp      address        addedBy      string         payload   (IPFS hash or JSON string)  }",
    "version": 1
  }
}